:020000040800F2
:10000000002000207D2C0008912A0008992A000871
:1000100000000000000000000000000000000000E0
:10002000000000000000000000000000A12A0008FD
:100030000000000000000000AB2A0008B52A0008FC
:10004000CD2C0008CD2C0008CD2C0008CD2C0008AC
:10005000CD2C0008CD2C0008CD2C0008CD2C00089C
:10006000CD2C0008CD2C0008CD2C0008CD2C00088C
:10007000C52A0008CD2C000800000000CD2C000887
:1000800000000000DD2A0008000000000000000061
:10009000CD2C000800000000CD2C0008CD2C00085D
:1000A000CD2C0008CD2C0008CD2C0008CD2C00084C
:1000B000CD2C0008CD2C0008CD2C0008CD2C00083C
:1000C00010B5064C2378002B07D1054B002B02D02E
:1000D000044800E000BF0123237010BDD4010020BC
:1000E00000000000A8940008044B10B5002B03D0BA
:1000F0000349044800E000BF10BDC04600000000F6
:10010000D8010020A89400080023C25C0133002A13
:10011000FBD1581E7047000002B4714649084900DF
:10012000095C49008E4402BC7047C04603B4714666
:10013000490840004900095E49008E4403BC7047ED
:10014000002243088B4274D303098B425FD3030A16
:100150008B4244D3030B8B4228D3030C8B420DD329
:10016000FF22090212BA030C8B4202D312120902B7
:1001700065D0030B8B4219D300E0090AC30B8B42F5
:1001800001D3CB03C01A5241830B8B4201D38B03A3
:10019000C01A5241430B8B4201D34B03C01A524148
:1001A000030B8B4201D30B03C01A5241C30A8B428B
:1001B00001D3CB02C01A5241830A8B4201D38B0276
:1001C000C01A5241430A8B4201D34B02C01A52411A
:1001D000030A8B4201D30B02C01A5241CDD2C3098C
:1001E0008B4201D3CB01C01A524183098B4201D308
:1001F0008B01C01A524143098B4201D34B01C01AF3
:10020000524103098B4201D30B01C01A5241C3086A
:100210008B4201D3CB00C01A524183088B4201D3D9
:100220008B00C01A524143088B4201D34B00C01AC5
:100230005241411A00D20146524110467047FFE731
:1002400001B5002000F0F0F802BDC0460029F7D04B
:1002500076E7704703460B437FD4002243088B4266
:1002600074D303098B425FD3030A8B4244D3030B3D
:100270008B4228D3030C8B420DD3FF22090212BA02
:10028000030C8B4202D31212090265D0030B8B427E
:1002900019D300E0090AC30B8B4201D3CB03C01A68
:1002A0005241830B8B4201D38B03C01A5241430B43
:1002B0008B4201D34B03C01A5241030B8B4201D333
:1002C0000B03C01A5241C30A8B4201D3CB02C01A9E
:1002D0005241830A8B4201D38B02C01A5241430A16
:1002E0008B4201D34B02C01A5241030A8B4201D305
:1002F0000B02C01A5241CDD2C3098B4201D3CB01AC
:10030000C01A524183098B4201D38B01C01A52415A
:1003100043098B4201D34B01C01A524103098B425E
:1003200001D30B01C01A5241C3088B4201D3CB0049
:10033000C01A524183088B4201D38B00C01A52412C
:1003400043088B4201D34B00C01A5241411A00D2DC
:1003500001465241104670475DE0CA0F00D0494245
:10036000031000D34042534000229C4603098B42B5
:100370002DD3030A8B4212D3FC22890112BA030A3D
:100380008B420CD3890192118B4208D389019211BF
:100390008B4204D389013AD0921100E08909C30944
:1003A0008B4201D3CB01C01A524183098B4201D346
:1003B0008B01C01A524143098B4201D34B01C01A31
:1003C000524103098B4201D30B01C01A5241C308A9
:1003D0008B4201D3CB00C01A524183088B4201D318
:1003E0008B00C01A5241D9D243088B4201D34B0033
:1003F000C01A5241411A00D20146634652415B1075
:10040000104601D34042002B00D549427047634655
:100410005B1000D3404201B5002000F005F802BD9A
:100420000029F8D016E770477047C0468446100090
:1004300062468C461900634600E0C0461FB501F0D5
:1004400033F8002801D40021C8421FBD10B500F0C8
:1004500077FF4042013010BD10B501F025F80028AB
:1004600001DB002010BD012010BDC04610B501F019
:100470001BF8002801DD002010BD012010BDC04682
:1004800010B500F0A1FF002801DC002010BD012004
:1004900010BDC04610B500F097FF002801DA00201B
:1004A00010BD012010BDC04670B500220C4B0400E9
:1004B0000D00FFF7EFFF002804D12000290001F014
:1004C00073FF70BD064B00222000290001F040FBA5
:1004D00001F06AFF80231B069C466044F1E7C0469A
:1004E0000000E04170B50022002304000D00FFF77A
:1004F000B3FF002808D12000290000F00FF8020007
:100500000B001000190070BD80231B06E9182000A5
:1005100000F004F8002342428B41F2E770B500225C
:100520000B4B0D00040001F02DF8FFF7BDFF060096
:1005300001F0A4FF0022074B01F024F802000B0099
:100540002000290001F004FBFFF7AEFF310070BD71
:100550000000F03D0000F04170B50600080001F019
:100560005FFF0022064B01F00DF80D000400300083
:1005700001F084FF2B00220000F004F870BDC0469B
:100580000000F041F0B54F464646D646C0B582B0B1
:10059000009001910E034C00CD0F710A009E5F0088
:1005A000760F0E43009900920193C9008946190302
:1005B0007B0D9846019B490ADB0F9C46009B009AE5
:1005C0005B0F0B434146640DD200611A654500D1B3
:1005D000A6E0002972DD4746002F00D1DDE0CC4FB8
:1005E000BC4200D19AE10127382917DC80273F045B
:1005F0003B431F2900DDDDE12027781A1F008740DB
:10060000BA461700CF408446380057460743604635
:100610008240CB40501E8241F61A17434B46DF1BE7
:10062000B94580414042361A330200D4FFE07602D9
:10063000760A002E00D13CE1300001F0C5FF030036
:10064000083B20213800CA1AD0409E4002009F403B
:1006500032439C4200DDA6E1181B0130091A3E001E
:100660008F40C6407B1E9F4113008B4037431F4382
:10067000C2403B0016000024134300D1DFE17B079A
:1006800000D132E30F233A003B40042B04D03A1D43
:10069000BA42BF417F42F619330200D423E39C4B98
:1006A00001349C4200D1B4E09A4B64051E40640DB5
:1006B0007707D20876021743360BACE0002900D149
:1006C0007EE04146091B002C00D060E13400484622
:1006D000044300D1C9E14C1E012900D12EE28C4D0A
:1006E000A94200D124E20127382C11DC21001F2966
:1006F00000DD0BE2202437004846641AA740C840BA
:1007000007434846A040CE40441EA0419B1B0743E0
:10071000D71BBA4292415242654644469E1A83E72D
:10072000002900DC9CE04746002F67D11F001743DB
:1007300000D1E4E0481E012900D19BE1744FB94289
:1007400000D1EBE001270100382811DC1F2900DD72
:10075000C7E12027781A1F00844687401000C84050
:10076000074360468240CB40501E8241F618174333
:100770004F444F45804140423618330257D5644BB1
:1007800001349C4245D00121624B7A081E40394019
:100790000A43F7071743760871E71F00174300D194
:1007A000ADE04F1EBC46012900D182E1584FB9424D
:1007B00000D190E161460127382900DD2EE718E7D6
:1007C000554F611C394200D0D0E0310048461F002F
:1007D00001431743002C00D03DE1002900D1BCE1CA
:1007E000002F00D0BFE14B460021D8087707074310
:1007F000F00806034C05360B640D0CE0444FBC4278
:1008000000D18BE001273829B2DC80273F043B432D
:100810009CE70026002724053443ED072C433800CD
:10082000210002B0E0BCBA46B146A846F0BD7B0745
:1008300004D00F233B40042B00D028E7F808344BAA
:1008400077070743F0089C4200D04AE23B0003438D
:1008500059D080263603064336032D4C360BDAE793
:10086000002961D04146091B002C00D1B9E0284C79
:10087000A04500D1A5E10127382913DC80242404F8
:1008800026431F2900DDC8E1202437004846641AAA
:10089000A740C84007434846A040CE40441EA04160
:1008A0009B190743BF189742924152424446D618BB
:1008B00063E7380001F088FE030018331F2B00DCCB
:1008C000BFE63A00083882409C4200DD83E01B1BF3
:1008D000581C1F2800DCB4E117001F3BDF40202814
:1008E00005D040231B1A9A40531E9A4117430024F7
:1008F000002F0AD07B0700D0C4E626009EE74B46B7
:100900000C00D8089BE70027014C002683E7C0466F
:10091000FF070000FFFF7FFFFE0700004B46770741
:10092000D8080743F00891E7CD4F611C39426BD1DD
:10093000310048460143002C00D04BE11F00174313
:10094000002900D181E1002F00D14CE74A444A45FB
:100950008041F61840423618330200D5B0E1170046
:100960009146374300D03EE7002654E74946891AAE
:100970008846C145BF41F11A7F42C91B0F0261D4AD
:1009800047460F4300D1BDE00E00474651E6B54C47
:10099000A04500D100E10127382900DDB8E6802418
:1009A00024042643A3E6B04EE41A16407B0700D089
:1009B0003FE743E70F001800203FF8408446202916
:1009C00003D04027791A8B401A43531E9A4163463D
:1009D00017001F4322E6A448E11A10404707C00849
:1009E00007E734004846044300D1FAE04C1E0129D1
:1009F00000D1D7E09B4FB94200D1E2E00127382C6B
:100A000000DD4FE721003CE7964CA14200D1DDE03C
:100A10004A444A458041F31840421818C707520813
:100A200017434608520705D00F220C003A40042A0B
:100A300000D02CE67607FF0837430009D9E60027E7
:100A40000026E8E64946571ABA4292419E1B524296
:100A50006546B61AEDE5002900D0C6E0002F67D143
:100A6000802600257F4C3603D5E665460C001E0027
:100A7000D008E4E64A444A458041F3184042181839
:100A80001100030200D496E0774B49081840C307D1
:100A90000B434408490700D129E10F221A40042AD8
:100AA00000D1EAE01F1D9F42B6417642361902246A
:100AB000C4E649468F1AB9458041F61A4042361AB3
:100AC000330206D47307FF0801211F43F00890E6A4
:100AD00065460124ABE54B467707D8080743F00885
:100AE000B4E60F001800203FF8408446202903D0C8
:100AF0004027791A8B401A43531E9A4163461700C8
:100B00001F4335E600250024002684E60C0035004E
:100B1000203CE540202905D04024611A8E404946FA
:100B2000314389464846411E884107002F43EFE57F
:100B3000D2085F0765461743D80887E6171ABA42F6
:100B400092419E1B5242B61A3302C1D47307FF086A
:100B5000654601211F43F0084BE6002F7BD0654618
:100B60001E0091463FE6811A8846C145A441F11A0C
:100B70006442091B80242404214277D0101A824247
:100B8000924107009E1B5242B61A374300D0A0E0A4
:100B90006546002400263EE65F07D20865461743F7
:100BA000D80853E6811891429241F01852428018B9
:100BB000030200D568E74707C9080F43C0080121B1
:100BC00017E6D2085F071743D8083FE60C00002657
:100BD000002720E6002956D15F07D2081743D8081E
:100BE00034E60C001E00D00829E6C1087007014356
:100BF000F008002F62D080242403204207D0DE08B2
:100C0000264204D165463000D1085B0719434F0FD7
:100C1000C900C9087F070F4318E60C003000203CCC
:100C2000E0408446202905D04024611A8E40494680
:100C3000314389464846411E8841614607000F43BB
:100C400030E620210027091A0EE51E00002F00D0F3
:100C500022E5002458E7002500240026DBE5C046F5
:100C6000FE070000FF070000FFFF7FFF47460F431E
:100C700000D147E70E00C146B5E5DF086407022151
:100C800027430009B5E51900C0087707074311435A
:100C9000F008002900D1D9E580210903084207D0D6
:100CA000DC080C4204D1D2085B071A43170020006D
:100CB0007B0FFF00FF085B071F43C7E50F00C5E57B
:100CC000124BD20833405F075B02012417431E0B0F
:100CD000A1E5264212D00D4B6546020001241E40BC
:100CE000E6E4210085E51700A8E53A00D4E4DB0836
:100CF00064071C432700022100097AE5C008770732
:100D0000074365460021F00873E5C046FFFF7FFFFB
:100D1000F0B5DE46454657464E46E0B587B00092F0
:100D200001930B031B0B9B46CA0F4B00040080462C
:100D30005B0D029200D198E07C4A934237D059462D
:100D4000420FC9000A43802109041143C2009046A2
:100D5000774A894692469A44002300240393009ED2
:100D6000019F3B031B0B9B467B0030005B0DFD0F7F
:100D7000002B59D06D4A934248D05946720FC90092
:100D80000A438021090411438B466949F2008C46CD
:100D900051466344CB1A9A460021029E6E40F6B239
:100DA0000F2C00D9CEE0634BA4001B599F465A4636
:100DB0000243914600D090E09A46022390460824D0
:100DC0000393CCE7CB464246029D0399022900D10A
:100DD000DEE1032900D18DE0012900D079E12E0068
:100DE00000220023002490461B052343F6073343CB
:100DF0004046190007B0F0BCBB46B246A946A04623
:100E0000F0BD002200249046484BEDE75A46009B77
:100E10001A43494B9C46E244002A59D102231C4301
:100E2000002302219B46B8E75A46009B1A4349D04B
:100E30005B46002B00D19CE1584601F0C5FB020047
:100E400003000B3A1D27009EBA1A19005846D640D7
:100E500008398840320002439346009A8A40374955
:100E600053448A4600219A4497E75B4603439946D8
:100E700021D05B46002B00D169E1584601F0A4FB6C
:100E80000B235B429C460200844466461D239B1B49
:100E9000260011005846DE400839884033000343DD
:100EA000994623008B409846254B00249B1A9A466E
:100EB0000023039353E7002398469A460133042402
:100EC00003934CE701231C43002301219B4664E765
:100ED0000323320003211C435FE79A460323D946CC
:100EE0000C2403933BE700238024984600260F4BF5
:100EF000240379E780245B4624031C4324032E004B
:100F000090460A4B240B6FE780244B462403234270
:100F100002D05B462342F0D080244B4624031C437E
:100F20002403029E014B240B5EE7C046FF0700002E
:100F300001FCFFFFC094000801F8FFFFF30300006D
:100F40000DFCFFFFCB4500D2F8E000D1F3E0012318
:100F50005B429C46444648460025E2445B46170EE9
:100F60001B021F43190C3B04120200971F0C9146F1
:100F700002910397FFF76AF902007A430B04210CF0
:100F8000804619438A4209D9009F0123BC465B422F
:100F900061449C46E0448F4200D85CE1881A029983
:100FA000FFF754F9039A240442430904240C030074
:100FB0000C43A24206D90099013B8C466444A142ED
:100FC00000D842E1A01A424612041A4393464B4607
:100FD00059461B0C1F0004930B0449460904090CD5
:100FE0000C001B0C5C43120C7B43884651437A4334
:100FF000270CBC465B186344994203D980214902FF
:101000008C466244190C24041B04240C8A181C19F5
:10101000904202D316D1A54214D25B46009F013BF9
:101020004D4405934D459B41BC465B426344C0180B
:10103000874200D302E1824200D929E100D124E1B4
:10104000059B9B462C1BA542AD41009B801A6D421F
:10105000401B834200D10FE10299FFF7F7F8039A92
:101060000B044243210C050019438A4200D9CBE00E
:10107000881A0299FFF7EAF8039A24044243090404
:10108000240C03000C43A24200D9CAE04146A41A32
:101090002A041A43049F13041B0C594340467B4304
:1010A0009C46150C68430B0C844463447D43984272
:1010B00003D98020400284466544180C09041B04AF
:1010C000090C40195B18844227D323D00123350033
:1010D0001A43944B5344002B60DD510700D086E047
:1010E0002E00D1085A46D20106D55A468E4B1A40D8
:1010F00080239346DB0053448C4A934200DD80E614
:101100005A4652070A4390465A465B055402240B3E
:101110005B0D69E63500002BDBD0009D511EAC460F
:101120006444AC4200D29EE0844200D2E1E000D1AF
:10113000EEE00A00CAE7424500D908E74B46DC0763
:10114000580843465B081C434346DD0706E701F0A9
:101150003BFA15239C4684440200634620321C2B34
:1011600000DC92E623000838834099460023984625
:101170009AE601F029FA02000300153220331C2AF6
:1011800000DC5FE600990838814000228B4666E665
:1011900000222E0000249046654B25E62E000121FA
:1011A000C91A382900DD1BE61F297EDC61481400BE
:1011B00050445B4682408340CC40501E82412343D2
:1011C0001A435B46CB40510709D00F211140042937
:1011D00005D0111D9142924152429B180A001902FA
:1011E00000D49BE00022012300249046FCE50F215F
:1011F0001140042900D173E7111D914292415242DE
:101200002E00C90893446DE7009B013D9C46614454
:101210008B4200D92CE78A4200D829E7851E614419
:1012200026E70099013B8C466444A14200D92DE792
:10123000A24200D82AE7831E644427E7874200D0F1
:10124000FEE6A94500D9FBE6F5E6A24200D8B9E6DC
:10125000831E6444B6E68A4200D89FE6BC46831EDD
:10126000984661449AE60A00844200D02EE74B4536
:1012700000D02BE735002CE72A4B2F4A53449245E8
:1012800043DB0122002193442CE7AC4200D8D7E68F
:1012900002235B429C4600994D444D459B41E344EB
:1012A0008C465B426344C018CCE61F204042C31A00
:1012B0005846D840202904D05946204B53449940E1
:1012C0000A43531E9A410723190002430024114088
:1012D000134209D008331340042B1DD0131D934231
:1012E00089411A0049424907D2080A43904600231F
:1012F0007AE54946009F4D004D458941BC4649422B
:101300006144A946023A6418AEE70122524246E718
:101310009945EED30A00AAE70021E5E759075B02E9
:101320001C0BE1E7FF030000FFFFFFFEFE070000CC
:10133000FF0700001E04000002FCFFFF3E04000047
:10134000F0B55746DE464E464546E0B50D00040072
:10135000E80F83460903D80F090B824619488C46CB
:101360001F0369005E00490D3F0B760D814218D0C6
:1013700086420FD00120B1420DD1BC450BD1944221
:1013800009D1D3451CD0002905D160462043431E16
:10139000984100E00120F0BCBB46B246A946A046F9
:1013A000F0BD01208E42F6D1614639430F0017434C
:1013B0002743F0D15B465246981A431E9841EAE70C
:1013C0000020E8E7FF070000F0B557464E464546C7
:1013D000DE46E0B50D000E034900490D8A46DF0FD9
:1013E000E90FBC4683B02F4F04008046019158009E
:1013F00019039146360B090B400DBA451DD0B84272
:101400000DD05746002F2AD13443002824D10A4357
:1014100036D0002C41D163465800013815E0114305
:1014200038D15346002B01D12643F4D0019B6345AC
:1014300007D1019B5800013807E026432AD15045C7
:1014400021D00120019B5F42384303B0F0BCBB4672
:10145000B246A946A046F0BD002CDCD0E6E7002845
:10146000EFD0019B6345ECD18245EADCE1DB8E42A3
:10147000E7D8DED1C845E4D80020C845E5D2D8E792
:10148000002CE2D0DDE7114304D1019B6345D8D1A4
:101490000020DAE702204042D7E7019B6345E6D00F
:1014A000CFE7C046FF070000F0B557464E46454619
:1014B000DE46E0B50D000E034900490D8A46DF0FF8
:1014C000E90FBC4683B02E4F0400804601915800BE
:1014D00019039146360B090B400DBA451ED0B84290
:1014E0000DD05746002F27D13443002833D10A436B
:1014F00034D0002C40D163465800013815E0114328
:1015000012D15346002B01D12643F4D0019B6345F1
:101510001DD00120019B5F42384306E0264303D1E2
:101520005045F6D111431CD0022003B0F0BCBB469D
:10153000B246A946A046F0BD0028EAD0019B63450B
:10154000E7D18245E5DC02DB8E42E2D80ED0019B7A
:1015500058000138E9E7002CCDD0D7E7002CE4D0C3
:10156000D7E7019B00206345DFD0D2E7C845D0D83C
:101570000020C845D9D2EAE7019B6345E4D0C8E71B
:10158000FF070000F0B557464E46DE464546E0B53B
:101590001F000B031B0B16009A46CA0F4B000400DA
:1015A000914685B05B0D00D1CFE1CD4A934255D035
:1015B0005146420FC9000A43802109041143C20069
:1015C0009046C84A8A4693469B44002300250293CE
:1015D0003C037B00FA0F0196240B5B0D009200D1B7
:1015E00088E1BF4A934200D192E0BE4A94466344E8
:1015F0009B440A2D42DCE400730F234380244946B8
:1016000024041C43F3000193009B00205940CBB2FB
:101610000393022D00DC94E00123AB401D00A623C0
:101620002A00DB001A401D4200D029E290239B00D3
:101630001D4200D14DE20023802499462403A84B8B
:1016400010004A461B052343D2071343190005B077
:10165000F0BCBB46B246A946A046F0BD5246024386
:10166000904600D0ACE19B460223924608250293A7
:10167000AEE7009BA2469946019B9846029B022B2F
:1016800000D1CAE1032B00D192E1012B10D100233C
:1016900000240022D4E701227B083A40134352463B
:1016A000D2071343984653465B089A46039B9946D4
:1016B0005B46581C8023DB005B44002B00DCB1E15F
:1016C000424652070BD00F2241460A40042A06D058
:1016D0004246111D4145924188465242924452462B
:1016E000D20106D55246804B1A4080239246DB0039
:1016F000C3187E4A934200DD8FE14246D10852462C
:1017000052070A4351465B054C02240B5B0D97E7D9
:10171000734B26439C46E344002E00D16FE1032324
:1017200049461D43009B5940CBB203930A2D00DD6F
:1017300033E10123AB401D000323029388222A4298
:1017400097D1424643461204120C160001981D0C14
:10175000030C0004000C4643B4461E006E43009682
:10176000160007005E436146B0466F430E0CB84456
:101770004644B74205D9802149028846009F474424
:10178000009761460904090C370C36048C46310079
:10179000614401911100260C2404240C61438C4601
:1017A0002100694389466146090C884672434A44D0
:1017B00042447543914503D98021490288464544F6
:1017C000110C884661460904090C8C4612046244D7
:1017D000B91802915146090C8C4651460F043F0C32
:1017E0003900414345448846614641438A46414663
:1017F0006046090C894658437B4353444B449A4501
:1018000003D98021490289464844190C894641463A
:101810000904090C8846390061431B044344884687
:1018200061464C4371438C46414677430E0C3F1949
:10183000F6194844B44203D9802149028946CC4470
:101840000299009F894631044F4489464146974298
:1018500092410C04240C4C44FF1852426419A11804
:101860009F429B41884682465B4299469045924101
:10187000AC42A441C244D14452426442144399450B
:101880009B41824592415B42524213434A46360C89
:10189000A419E31863445B02D20D1A4301999246DE
:1018A0007A020A43501E8241FF0D17434A465202F4
:1018B0001743B846DB0100D5EDE60D4B039A5B44B8
:1018C0009146002B00DCACE03A00520700D110E753
:1018D0000F2258463A40042A00D0F9E609E7C046EC
:1018E000FF07000001FCFFFFFFFFFFFEFE070000F7
:1018F000FF030000220032436FD0002C00D1C2E071
:10190000200000F061FE020003000B3A1D20821A45
:1019100030001900D04008398C40020022433400C6
:101920008C405946CB1A86498B469B440A2D00DDD4
:10193000A4E64946009B01945940CBB21400002014
:101940000393022D00DD67E6FBE65346034398460A
:101950003CD05346002B00D1A3E0504600F034FEAB
:101960000B235B429C460200844411005046083918
:1019700088401D23804660461B1A2000D840030083
:10198000404603439A4623008B4098466C4B002503
:101990009B1A9B46002302931AE60F2D00D0C9E044
:1019A000802352461B031A4202D01C4200D192E00F
:1019B0008024534624031C4324034246240B3EE662
:1019C0009B46032380460C25029301E600239A469A
:1019D0009B46013304250293FAE501210D430A2DAC
:1019E00000DD4BE6494600984140C9B20391022D03
:1019F00000DC96E000230024012001930CE6494618
:101A00000223009A2B435140CAB203920A2B00DDF5
:101A100034E6002D57D1039B994600240022494B00
:101A20000EE658460121C91A382900DD2FE61F2984
:101A300056DD1F2254465242D31ADC40202907D0DB
:101A4000414B42469C465346604483401A4390466D
:101A500042460721531E9A410B00224313400024A3
:101A6000114209D00F231340042B5DD0111D914268
:101A70009B410A005B425B07D2081A430023DFE563
:101A8000039B9946FAE5019800F09EFD02000300D1
:101A9000153220331C2A00DC38E7019A08388240CE
:101AA0003FE700F091FD15239C4684440200634605
:101AB00020321C2B00DC58E700239846230008380E
:101AC00083409A4662E71D00002300240220019310
:101AD000A2E5029032E61C43009B019A9946AEE5CE
:101AE0001A4B5246C31840469A40C84002434046EB
:101AF00098400300581E834154461A43CC40530774
:101B000009D00F231340042B05D0131D934292419B
:101B10005242A4181A00230208D5012300240022EF
:101B20008EE5894600248BE50023A5E76307640260
:101B3000240BA1E7009BA2469946019B984637E7F4
:101B40000DFCFFFFFF0700003E0400001E04000024
:101B5000F0B557464E464546DE46E0B583B00090A8
:101B600001910C034D00CE0F610A009C5F00640FD1
:101B70000C43009900920193C80019037B0D99460C
:101B8000019BCC4FDB0F9C464B0A00998046490FC6
:101B90001943009B8B46DA0092466D0DB94500D182
:101BA000BFE00123614659404B468C46EB1A8E42FA
:101BB00075D0002B00DCA3E24946002900D1CEE01D
:101BC000BD4200D100E20127382B19DC802759469D
:101BD0003F0439438B461F2B00DDFAE12027F91A19
:101BE0008C4659466746B9400F001100D9400F4353
:101BF00061468A40511E8A415946D9401743641AAA
:101C0000C71BB84280414042241A230200D440E15D
:101C10006402640A002C00D154E1200000F0D4FCDE
:101C20000300083B20213800CA1AD0409C40020023
:101C30009F4022439D4200DDA6E1581B0130091A56
:101C40003C008F40C4407B1E9F4113008B402743C4
:101C50001F43C2403B0014000025134300D1F7E1AD
:101C60007B0700D177E30F2338003B40042B04D0DF
:101C7000381DB842BF417F42E419230200D468E313
:101C80008C4B01359D4200D1F4E08B4B6D051C401F
:101C90006D0D6707C00864020743240BECE0002BBE
:101CA00000DC29E34946002900D0D6E0594611431B
:101CB00000D12EE1591E012B00D1E6E1BB4200D13B
:101CC00082E101270B00382914DC1F2B00DD3CE2E8
:101CD0002027F91A8C4659466746B9400F00110073
:101CE000D9400F4361468A40511E8A415946D94026
:101CF000174364183F18874280414042241823024A
:101D000000D4C6E06B4B01359D4200D1B2E0012109
:101D1000694B7A081C4039400A43E70717436408B7
:101D20009EE7664B11438A46EB18002928D066458A
:101D30002CD0002B5BD0002D00D12CE15B466646F9
:101D40005F07D2081743DD083B002B4300D1E2E0D8
:101D5000802424032C432403564D240B8CE0594645
:101D6000114300D1D5E0591E012B00D1B9E1BB428E
:101D700000D1B1E101270B00382900DD40E72AE757
:101D80006146012779408C466645D2D1002B00D1AF
:101D9000C5E0002D00D055E14B462500054300D19C
:101DA00012E2591E8C46012B00D149E2414DAB4253
:101DB00000D18FE20127382911DC63461F2B00DD9B
:101DC0005BE26146202327005B1A050098409F4094
:101DD000CD40431E9841CC402F430743A344BF1836
:101DE0009742924152425A4414004D4687E7344F7D
:101DF0006B1C3B4200D0B6E05946230011430F0054
:101E00000343002D00D026E1002B00D1C0E10029C2
:101E100000D1A1E0831A98465B464045AD41E31AE4
:101E20006D425B1B80252D042B4200D14BE15B46AC
:101E3000101A824292411C1B07000126634652423F
:101E4000A41A27431E40002F00D142E12C4200D1AA
:101E50006DE2194B01251C401BE7BD4200D13BE15F
:101E60000127382B00DD45E7802759463F043943D9
:101E70008B462AE7002400272D052543F607354326
:101E80003800290003B0F0BCBB46B246A946A046C4
:101E9000F0BD7B0704D00F233B40042B00D0E7E6C6
:101EA0002B00F808034A67070743E508934200D16F
:101EB0004AE7A5E0FF070000FFFF7FFF01F8FFFFF3
:101EC000FE070000380000F07FFB030018331F2BD3
:101ED00000DCA7E63A00083882409D4200DD8AE037
:101EE0005B1B581C1F2800DCD8E117001F3BDF409C
:101EF000202805D040231B1A9A40531E9A411743AD
:101F00000025002F00D1E5E07B0700D0ABE62C00D8
:101F1000C6E7C008C6E700270024D14DACE7D14F83
:101F20006B1C3B4271D123000343002D00D04EE1D6
:101F30005746002B00D1B5E1002F0DD08318834206
:101F400080415C4440422418220200D5C8E11F00B1
:101F50009846274300D1BCE043466707DB081F4390
:101F6000E50800234CE0831A98465B464045BF4194
:101F7000E31A7F42DB1B1F027CD447461F4300D17C
:101F8000A6E01C00474645E6B74CED1A14407B0717
:101F900000D080E784E74B462500054366D05F1EEE
:101FA000012B00D1FCE0AE4DAB4200D15EE16646B4
:101FB000382F00DCB4E00120171ABA4292415B4688
:101FC00052424D469C1A20E66707C0080743E508C1
:101FD000BAE61F005946203FF9400F00202B05D0DC
:101FE0004021CB1A594699400A43924653465A1EFD
:101FF00093411F4304E6EB1A9B4D15406F07ED0814
:102000002C035D05240B6D0D36E7954DAB4200D1D9
:10201000D6E082182100824280415944404208188B
:10202000C707520817434408520700D485E10F221E
:102030001D003A40042A00D01AE6FF08640727432F
:102040000509DDE75B46D2085F071743DD087BE63D
:102050000027002410E7002B00D0D6E0002900D094
:102060002FE1802400267E4D240305E766465C466A
:10207000D00817E75B46171ABA4292411C1B01268B
:1020800063465242A41A1E40C4E58318834280412D
:102090005C44404225182A0200D4DAE0724A5B0808
:1020A0001540EA071A4369085B0700D44AE10F2389
:1020B0001340042B00D1FCE0171D9742A441644259
:1020C00002256418ECE647461C001F4300D043E796
:1020D000002600250024CFE6C00867070743E5086F
:1020E00032E6871A5B46B8428041E41A4042241A1D
:1020F000230228D46307FF081F43E50801237FE775
:10210000002B00D173E64B465F1B3B00002D00D136
:1021100042E7382F00DDECE080230E001B041C4357
:102120001F2F25DC20252300ED1B0100A840AB401C
:10213000F940451EA8410B43FC4018435B461B1B5E
:102140009B4639E76646012562E51F005946203F58
:10215000F9408C46202B05D040275946FB1A994060
:102160000A43924657467B1E9F4163461F43C1E583
:102170003B002500203BDD40202F04D04023DB1B0B
:102180009C40204380464046431E9841284313E725
:1021900000299DD0012663465C4690461E40DBE642
:1021A000171A5B46BA4292411C1B5242A41A2302E0
:1021B000C8D46307FF081F4366460123E5081FE7ED
:1021C0001D000024002757E65C46D0086AE6002B75
:1021D00000D137E75346C00867070743E508002BDF
:1021E00000D1B1E580231B031D4208D05946C80821
:1021F000184204D1D20849070A43170005007B0F93
:10220000FF00FF085B071F439EE5C00863071843F4
:10221000E508002953D080231B031D420AD05946EC
:10222000CC081C4206D1012663462500D008490788
:1022300008431E40470FC000C0087F07074383E5DF
:102240008318934292415C445242A5182A0200D559
:1022500024E76F07DB081F43ED080123D0E6C046E3
:10226000FF070000FE070000FFFF7FFF5B46D2086C
:102270005F0766461743DD0866E52500203BDD4025
:102280006346202B05D0402361465B1A9C402043C7
:10229000804647467B1E9F412F43A0E52021002713
:1022A000091AD2E4002F00D113E75C46170000257D
:1022B000F6E5D708490702230F432D09A0E60700DA
:1022C00042E55B4601265F07DD086346D2081743F7
:1022D0001E4039E55B46D2085F071743DD0833E54A
:1022E0001E4ADB0822405707520201251F43140BE8
:1022F000C2E50E0001205FE6002B0DD04B465B1BB4
:102300009C46002D00D148E50127382B00DD66E50D
:1023100080231B041C4350E56B1C114D2B4200D045
:1023200073E65946230011438A46034300E66707D4
:10233000C00800230743E50862E66407FF08274357
:1023400005095DE6D208490711430F0002232D0954
:1023500056E60700A4E538008FE4C046FFFF7FFF84
:10236000FE070000F0B5C6461E03360BB0460D4E04
:102370000C034D005F0000B5240B6D0D7F0DB542C1
:102380000BD0084900208F4204D146461643300046
:10239000431E984180BCB846F0BD04430120002C88
:1023A000F8D1EEE7FF0700000B00020070B5164DF4
:1023B0000C0382B04900002000920193240B490DC8
:1023C000DE0FA94204DD1148814203DD104BF018F5
:1023D00002B070BD8020400320430E4C641A1F2CB5
:1023E00008DD0D4B5B1AD84003005842002EEFD198
:1023F0001800EDE7094B009A9C46030061448B40AE
:10240000E2401343F1E7C046FE0300001D04000054
:10241000FFFFFF7F3304000013040000EDFBFFFF0C
:1024200070B5002816D0C317C5185D40C40F28002A
:1024300000F0CAF8104B1B1A5B055B0D0A2814DC70
:1024400002002E00153296400B22121AD5402D03A1
:102450002D0B03E000240023002500261B052B4341
:10246000E40723433000190070BD0B3885402D036D
:1024700000262D0BF2E7C0461E04000010B5041E16
:1024800010D000F0A1F80E4B1B1A5B055B0D0A285B
:102490000FDC0B222100121AD14015300A038440B0
:1024A000120B01E0002300221B051343200019003A
:1024B00010BD22000B38824012030024120BF3E7F8
:1024C0001E040000F0B54B000F035B0D3A4C450FA6
:1024D00083B07F0A5E1C2F4300900191CA0FC50094
:1024E00026420BD035495C18FE2C13DDFF2000235B
:1024F000C0051843D207104303B0F0BD3D43002B85
:1025000001D10020F4E7002DF0D08023DB03FF2071
:102510003B43EDE7002C0CDD009BFF009B01581EA8
:102520008341690F3B430B43590727D1DB08E0B2D6
:10253000DEE72100173131DB80211E2009043943F9
:10254000001B1F282DDD02267642341B0E00E640BC
:102550003400202804D01A488446634499400D432F
:102560002B00591E8B412343590703D00F211940DB
:1025700004290BD19B0100205B0AB9E70F21194008
:10258000042904D19B015B0AE0B2B1E700240433C3
:102590005901F7D501340023E0B2A9E70020002358
:1025A000A6E7084C1C192B00A540C340A140681E9B
:1025B000854129430B43D7E7FE07000080FCFFFF5E
:1025C000A2FCFFFF82FCFFFF1C2101231B04984299
:1025D00001D3000C10391B0A984201D3000A0839B4
:1025E0001B09984201D30009043902A2105C40186B
:1025F0007047C0460403020201010101000000000F
:102600000000000080B582B000AF00F061FB00F078
:1026100035F800F031F900F0F3F800F07FF8154BD1
:10262000180000F039FD00237B601BE0114B642192
:10263000180000F0C5FD7B68002B08D10D4B180079
:1026400000F05AFE03009AB20B4B1A8007E0094BC8
:10265000180000F051FE03009AB2074B5A807B68C5
:1026600001337B607B68012BE0DD024B180000F03A
:1026700067FDD4E7F00100208C02002090B595B0F2
:1026800000AF18243B19180038231A00002103F06A
:1026900065FA3B1D180014231A00002103F05EFAAE
:1026A0001C4B1B681C4A1A401A4B802109010A4323
:1026B0001A6021007B1802221A607B180122DA605E
:1026C0007B1810221A617B1800229A627B1818006E
:1026D00001F02EFB031E01D000F05CF93B1D0F2220
:1026E0001A603B1D01225A603B1D80229A603B1DEF
:1026F0000022DA603B1D00221A613B1D00211800F8
:1027000001F0DAFE031E01D000F044F9C046BD46D8
:1027100015B090BD00700040FFE7FFFF80B582B0AC
:1027200000AF3B00180008231A00002103F016FA3E
:10273000304B314A1A602F4B0022DA632D4B802236
:10274000D2055A602B4B00229A602A4B07229A63CB
:10275000284B01221A61274B0022DA60254B2022E8
:1027600001219954234B212200219954214B00220D
:102770009A62204BC222FF325A621E4B2C22002149
:1027800099541C4B04225A611A4B00221A63194BAC
:1027900000229A61174B00225A63164B0022DA611D
:1027A000144B180000F004FB031E01D000F0F2F8F7
:1027B0003B0001221A603B00802252015A603A001D
:1027C0000C4B1100180000F065FE031E01D000F054
:1027D000E1F83B00094A1A603A00064B1100180064
:1027E00000F058FE031E01D000F0D4F8C046BD46EC
:1027F00002B080BDF001002000240140020000046E
:1028000080B582B000AF3B00180008231A000021F9
:1028100003F0A4F9154B164A1A60144B07225A60AC
:10282000124B00229A60114B124ADA600F4B0022C1
:102830005A610E4B180002F00DF8031E01D000F093
:10284000A9F83B0000221A603B0000225A603A00BF
:10285000064B1100180002F08BF9031E01D000F0A6
:1028600099F8C046BD4602B080BDC0464C0200206B
:1028700000100040FFFF000090B589B000AF0C24AD
:102880003B19180014231A00002103F067F93E4B8E
:10289000DA6A3D4B04210A43DA623B4BDB6A0422CD
:1028A0001340BB60BB68384BDA6A374B01210A43DF
:1028B000DA62354BDB6A012213407B607B68324B66
:1028C000DA6A314B02210A43DA622F4BDB6A0222B9
:1028D00013403B603B68A023DB0500226021180009
:1028E00001F008FAC0239B0028480022190001F0DB
:1028F00001FA3B19802292011A603B1900225A60AA
:102900003B1901229A603B19214A1900100001F07D
:102910007BF83B1960221A603B1901225A603B196F
:1029200000229A603B190022DA603A19A023DB05E5
:102930001100180001F068F83B1980221A603B1959
:1029400000225A603B1901229A603A19A023DB0544
:102950001100180001F058F821007B18C0229200E5
:102960001A607B1801225A607B1800229A607B183B
:102970000022DA607B18054A1900100001F044F8C3
:10298000C046BD4609B090BD001002400004005092
:102990000008005080B500AF72B6C046C046FDE7E3
:1029A00080B500AF074B5A6B064B01210A435A63AF
:1029B000044B9A6B034B802149050A439A63C04636
:1029C000BD4680BD0010024090B589B000AF786070
:1029D0000C243B19180014231A00002103F0BEF840
:1029E0007B681B68184A93422AD1184B5A6B174BC5
:1029F000802189000A435A63144BDA6A134B012180
:102A00000A43DA62114BDB6A01221340BB60BB68E8
:102A10003B1903221A603B1903225A603B1900221A
:102A20009A603A19A023DB051100180000F0ECFFB2
:102A3000002200210C2000F0B5FF0C2000F0C7FFA1
:102A4000C046BD4609B090BD0024014000100240C0
:102A500080B582B000AF78607B681B680A4A9342F9
:102A60000DD10A4B9A6B094B10210A439A6300223D
:102A70000021112000F096FF112000F0A8FFC046B1
:102A8000BD4602B080BDC0460010004000100240AC
:102A900080B500AFC046FDE780B500AFC046FDE79A
:102AA00080B500AFC046BD4680BD80B500AFC04612
:102AB000BD4680BD80B500AF00F05EF9C046BD46A2
:102AC00080BD000080B500AF034B180000F020FC73
:102AD000C046BD4680BDC046F001002080B500AFB5
:102AE000034B180001F0F6FEC046BD4680BDC0464F
:102AF0004C02002080B500AF01231800BD4680BD08
:102B000080B582B000AF7860396003F081F80300CF
:102B100016221A6001235B421800BD4602B080BD38
:102B200080B582B000AF786001235A427B68110003
:102B30001800FFF7E5FFC046FDE780B586B000AF9F
:102B4000F860B9607A6000237B610AE000E000BFB2
:102B50000100BB685A1CBA60CAB21A707B690133A3
:102B60007B617A697B689A42F0DB7B681800BD461E
:102B700006B080BD80B586B000AFF860B9607A60FD
:102B800000237B6109E0BB685A1CBA601B781800FF
:102B900000E000BF7B6901337B617A697B689A4200
:102BA000F1DB7B681800BD4606B080BD80B582B001
:102BB00000AF786001235B421800BD4602B080BDC3
:102BC00080B582B000AF786039603B6880229201A6
:102BD0005A6000231800BD4602B080BD80B582B0A7
:102BE00000AF786001231800BD4602B080BD80B5FB
:102BF00084B000AFF860B9607A6000231800BD4669
:102C000004B080BD80B586B000AF7860144A154B23
:102C1000D31A7B617B693B61134B1B68002B02D18C
:102C2000114B124A1A60104B1A687B68D3183A6924
:102C30009A4207D202F0ECFF03000C221A60012333
:102C40005B4209E0084B1B68FB60074B1A687B6816
:102C5000D218054B1A60FB681800BD4606B080BD4F
:102C6000002000200004000090020020E803002063
:102C700080B500AFC046BD4680BD00000D4885460A
:102C8000FFF7F6FF0C480D490D4A002302E0D45827
:102C9000C4500433C4188C42F9D30A4A0A4C0023A6
:102CA00001E013600432A242FBD302F0B7FFFFF74A
:102CB000A9FCFEE70020002000000020D401002035
:102CC0004C990008D4010020E4030020FEE7000036
:102CD00080B582B000AFFB1D00221A700B4B1A6842
:102CE0000A4B40210A431A60002000F011F8031E2D
:102CF00003D0FB1D01221A7001E0FFF751FEFB1DFE
:102D00001B781800BD4602B080BDC04600200240BE
:102D100090B583B000AF7860144B1C68144B1B78DF
:102D20001900FA239800FDF70BFA030019002000A0
:102D3000FDF706FA0300180000F059FE031E01D04B
:102D400001230FE07B68032B0BD8796801235B42DA
:102D50000022180000F026FE064B7A681A60002355
:102D600000E001231800BD4603B090BD0000002024
:102D7000080000200400002080B500AF054B1B7840
:102D80001A00054B1B68D218034B1A60C046BD469B
:102D900080BDC046080000209402002080B500AF2E
:102DA000024B1B681800BD4680BDC046940200203F
:102DB00080B582B000AF78607B68002B01D1012321
:102DC00059E17B685B6D002B0AD17B6800229A6514
:102DD0007B685022002199547B681800FFF7F4FDAE
:102DE0007B685B6D10221340102B05D07B681B683D
:102DF0009B68042213400BD07B685B6D10221A4342
:102E00007B685A657B68502200219954012332E186
:102E10007B685B6D9A4A134002221A437B685A65AD
:102E20007B681B689B6803221340012B08D17B68D9
:102E30001B681B6801221340012B01D1012300E014
:102E40000023002B49D17B685A68C0231B069A4295
:102E50000BD07B685A688023DB059A4205D07B68DB
:102E60005A6880231B069A4211D17B681B681A6935
:102E70007B681B68920092081A617B681B6819695D
:102E80007B685A687B681B680A431A6114E07B6898
:102E90001B681A697B681B68920092081A61794B5B
:102EA0001A68784B78490A401A60764B19687B6833
:102EB0005A68744B0A431A607B681B68DA687B683F
:102EC0001B6818218A43DA607B681B68D9687B68B5
:102ED0009A687B681B680A43DA606A4B1A68694B18
:102EE0006A490A401A60674B19687B685B6B5A062F
:102EF000644B0A431A607B681B689A6880235B05F1
:102F0000134008D17B681B689A687B681B68802126
:102F100049050A439A607B681B68DA687B681B680E
:102F20005B490A40DA607B681B68D9687B68DA68AD
:102F30007B681B69022B01D1042300E000231A43A4
:102F40007B6820201B5C5B031A437B682C201B5C86
:102F50005B001A437B681B6B1A437B689B699B036E
:102F60001A437B68DB69DB031A437B681B680A43EF
:102F7000DA607B685A6AC223FF339A420BD07B68BF
:102F80001B68D9687B685A6A7B689B6A1A437B68AE
:102F90001B680A43DA607B6821229B5C012B1AD1F3
:102FA0007B6820229B5C002B09D17B681B68DA6858
:102FB0007B681B68802149020A43DA600BE07B686A
:102FC0005B6D20221A437B685A657B689B6D0122EA
:102FD0001A437B689A657B68DB6B012B1FD17B688A
:102FE0001B681A697B681B682A490A401A617B685A
:102FF0001B6819697B681A6C7B685B6C1A437B6879
:103000009B6C1A437B681B680A431A617B681B68C8
:103010001A697B681B6801210A431A610EE07B680C
:103020001B681B6901221340012B07D17B681B68B9
:103030001A697B681B6801218A431A617B681B68D7
:103040005A697B681B6807218A435A617B681B6841
:1030500059697B689A6B7B681B680A435A617B6875
:1030600000229A657B685B6D0322934301221A4319
:103070007B685A6500231800BD4602B080BDC0467B
:10308000FDFEFFFF08270140FFFFC3FFFFFFFFFD1D
:103090001902FEFF03FCFFFF90B585B000AF78601A
:1030A0000F23FB1800221A707B681B689B680422A0
:1030B000134038D17B6850229B5C012B01D1022345
:1030C00038E07B685022012199547B68DB69012B31
:1030D00007D00F23FC187B68180000F07BFA030070
:1030E00023700F23FB181B78002B20D17B685B6DAE
:1030F000124A1340802252001A437B685A657B684B
:1031000000229A657B685022002199547B681B68D5
:103110001C221A607B681B689A687B681B68042104
:103120000A439A6003E00F23FB1802221A700F2350
:10313000FB181B781800BD4605B090BDFEF0FFFFE0
:10314000B0B584B000AF78600F23FB1800221A706E
:103150007B6850229B5C012B01D1022329E07B6814
:103160005022012199540F257C197B68180000F02A
:1031700000FB030023707B191B78002B12D17C19F4
:103180007B68180000F08EFA030023707B191B780F
:10319000002B07D17B685B6D084A134001221A435C
:1031A0007B685A657B685022002199540F23FB18D5
:1031B0001B781800BD4604B0B0BDC046FEFEFFFF40
:1031C00080B584B000AF786039600023BB60002315
:1031D000FB607B685B69082B02D10823FB6014E06D
:1031E0007B681B68DB6801221340012B0BD17B68D5
:1031F0005B6D20221A437B685A657B685022002150
:103200009954012372E00C23FB60FFF7C7FD030014
:10321000BB601FE03B6801331CD03B68002B07D02C
:10322000FFF7BCFD0200BB68D31A3A689A4211D27C
:103230007B681B681B68FA6813400BD17B685B6D69
:1032400004221A437B685A657B68502200219954F6
:1032500003234BE07B681B681B68FA681340D9D0D6
:103260007B685B6D802292001A437B685A657B689D
:103270001B68DA68C0231B0113402ED17B68202213
:103280009B5C002B29D17B681B681B6808221340BC
:10329000082B22D17B681B689B680422134010D145
:1032A0007B681B685A687B681B680C218A435A60DC
:1032B0007B685B6D0F4A134001221A437B685A6595
:1032C0000BE07B685B6D20221A437B685A657B6844
:1032D0009B6D01221A437B689A657B689B69002B72
:1032E00003D17B681B680C221A6000231800BD46BE
:1032F00004B080BDFEFEFFFF80B582B000AF7860F5
:103300007B681B681B6C1800BD4602B080BD0000C6
:1033100080B584B000AF78607B681B681B68FB6079
:103320007B681B685B68BB60FB680422134003D0AA
:10333000BB680422134007D1FB68082213404ED01B
:10334000BB68082213404AD07B685B6D1022134093
:1033500006D17B685B6D802292001A437B685A65B8
:103360007B681B68DA68C0231B0113402BD17B6884
:1033700020229B5C002B26D1FB680822134022D020
:103380007B681B689B680422134010D17B681B6814
:103390005A687B681B680C218A435A607B685B6DA6
:1033A0002F4A134001221A437B685A650BE07B6861
:1033B0005B6D20221A437B685A657B689B6D0122F6
:1033C0001A437B689A657B68180000F04BF87B68AD
:1033D0009B69012B03D07B681B680C221A60FB6879
:1033E0008022134012D0BB68802213400ED07B682D
:1033F0005B6D802252021A437B685A657B68180015
:1034000000F038F87B681B6880221A60FB68102285
:10341000134020D0BB68102213401CD07B681B6B6C
:10342000002B06D07B681B68DB6801221340012B50
:103430000DD17B689B6D02221A437B689A657B687D
:103440001B6810221A607B68180000F01BF87B686C
:103450001B6810221A60C046BD4604B080BDC0463D
:10346000FEFEFFFF80B582B000AF7860C046BD466B
:1034700002B080BD80B582B000AF7860C046BD4666
:1034800002B080BD80B582B000AF7860C046BD4656
:1034900002B080BD80B582B000AF786039607B68D3
:1034A00050229B5C012B01D1022385E07B685022D6
:1034B000012199547B681B689B68042213400BD040
:1034C0007B685B6D20221A437B685A657B685022BB
:1034D0000021995401236FE03B685B68384A9342AE
:1034E00035D07B681B68996A3B681B685B035A0B85
:1034F0007B681B680A439A623B681A688023DB0278
:10350000134009D02F4B1A682E4B802109040A431F
:103510001A600A2000F07AF93B681A6880239B023F
:10352000134006D0274B1A68264B8021C9030A4353
:103530001A603B681A6880235B02134037D0214B26
:103540001A68204B802149040A431A602FE07B68E7
:103550001B689A6A3B681B685B035B0BD9437B68FB
:103560001B680A409A623B681A688023DB0213409A
:1035700005D0144B1A68134B13490A401A603B6874
:103580001A6880239B02134005D00E4B1A680D4B1E
:103590000E490A401A603B681A6880235B02134098
:1035A00005D0084B1A68074B09490A401A607B6826
:1035B00050220021995400231800BD4602B080BD5E
:1035C0000110000008270140FFFF7FFFFFFFBFFF42
:1035D000FFFFFFFE80B584B000AF78600023FB6082
:1035E0007B681B689B6803221340012B08D17B6812
:1035F0001B681B6801221340012B01D1012300E04D
:103600000023002B46D17B681B689B68244A13402B
:103610000DD07B685B6D10221A437B685A657B680E
:103620009B6D01221A437B689A65012333E07B6816
:103630001B689A687B681B6801210A439A60012015
:1036400000F0E4F8FFF7AAFB0300FB601BE0FFF7C4
:10365000A5FB0200FB68D31A0A2B14D97B681B68F0
:103660001B6801221340012B0DD07B685B6D10227B
:103670001A437B685A657B689B6D01221A437B68FD
:103680009A65012307E07B681B681B6801221340D1
:10369000012BDCD100231800BD4604B080BDC0461C
:1036A0001700008080B584B000AF78600023FB6015
:1036B0007B681B689B6803221340012B08D17B6841
:1036C0001B681B6801221340012B01D1012300E07C
:1036D0000023002B48D07B681B689B6805221340A1
:1036E000012B10D17B681B689A687B681B680221DC
:1036F0000A439A607B681B6803221A60FFF74EFB3F
:103700000300FB6029E07B685B6D10221A437B6835
:103710005A657B689B6D01221A437B689A65012379
:1037200023E0FFF73BFB0200FB68D31A0A2B14D9F6
:103730007B681B689B6801221340012B0DD17B68BD
:103740005B6D10221A437B685A657B689B6D012272
:103750001A437B689A65012307E07B681B689B68B6
:1037600001221340012BDCD000231800BD4604B019
:1037700080BD80B584B000AF78600023FB607B68BB
:103780001B689B68042213403AD07B681B689B68C7
:1037900004221340042B0DD17B681B689B68022216
:1037A000134007D17B681B689A687B681B681021EF
:1037B0000A439A60FFF7F2FA0300FB601AE0FFF792
:1037C000EDFA0200FB68D31A0A2B13D97B681B6839
:1037D0009B68042213400DD07B685B6D10221A4356
:1037E0007B685A657B689B6D01221A437B689A65EA
:1037F000012306E07B681B689B6804221340DED12E
:1038000000231800BD4604B080BD000080B584B020
:1038100000AF78600B4B1B680B491800FCF790FC5D
:1038200003001A007B685343FB6002E0FB68013B26
:10383000FB60FB68002BF9D1C046C046BD4604B012
:1038400080BDC0460000002040420F0080B582B01D
:1038500000AF0200FB1D1A70FB1D1B787F2B09D8DF
:10386000FB1D1B781A001F231A40044B01219140B5
:103870000A001A60C046BD4602B080BD00E100E00B
:1038800090B583B000AF02003960FB1D1A70FB1DBC
:103890001B787F2B28D82F4AFB1D1B785BB29B0817
:1038A000C0339B009B58FA1D1278110003220A4076
:1038B000D200FF2191400A00D2431A4011003B6818
:1038C0009B01FF221A40FB1D1B78180003230340B5
:1038D000DB009A401F48FB1D1B785BB29B080A4324
:1038E000C0339B001A5031E01B4AFB1D1B781900A6
:1038F0000F230B40083B9B0806339B00D31804336F
:103900001B68FA1D1278110003220A40D200FF2121
:1039100091400A00D2431A4011003B689B01FF22EC
:103920001A40FB1D1B78180003230340DB009A405C
:103930000948FB1D1B781C000F232340083B9B08F4
:103940000A4306339B00C31804331A60C046BD46C1
:1039500003B090BD00E100E000ED00E080B582B072
:1039600000AF78607B685A1E80235B049A4201D3C3
:10397000012310E00A4B7A68013A5A6001235B4246
:1039800003211800FFF77CFF054B00229A60044BCF
:1039900007221A6000231800BD4602B080BDC04651
:1039A00010E000E080B584B000AFB9607A600F210C
:1039B0007B18021C1A70BA687B181B785BB2110066
:1039C0001800FFF75DFFC046BD4604B080BD80B55E
:1039D00082B000AF0200FB1D1A70FB1D1B785BB2AA
:1039E0001800FFF733FFC046BD4602B080BD80B56A
:1039F00082B000AF78607B681800FFF7AFFF03006C
:103A00001800BD4602B080BD80B586B000AF7860BA
:103A1000396000237B610023FB6000233B614FE1A1
:103A20003B681B6801217A6991400A001340FB60E2
:103A3000FB68002B00D140E13B685B680322134028
:103A4000012B05D03B685B6803221340022B30D169
:103A50007B689B683B617B695B0003229A40130093
:103A6000DA433B6913403B613B68DA687B695B0082
:103A70009A4013003A6913433B617B683A699A6044
:103A80007B685B683B6101227B699A401300DA43E3
:103A90003B6913403B613B685B681B0901221A408C
:103AA0007B699A4013003A6913433B617B683A692A
:103AB0005A603B685B6803221340032B17D07B6876
:103AC000DB683B617B695B0003229A401300DA43A9
:103AD0003B6913403B613B689A687B695B009A4095
:103AE00013003A6913433B617B683A69DA603B68CB
:103AF0005B6803221340022B23D17B69DA087B68C1
:103B000008329200D3583B617B69072213409B0027
:103B10000F229A401300DA433B6913403B613B6834
:103B20001A697B6907210B409B009A4013003A6990
:103B300013433B617B69DA087B680832920039697C
:103B4000D1507B681B683B617B695B0003229A4014
:103B50001300DA433B6913403B613B685B68032217
:103B60001A407B695B009A4013003A6913433B613A
:103B70007B683A691A603B685A68C0239B0213400D
:103B800000D19AE0544B5A6B534B01210A435A63BC
:103B9000524A7B699B0802339B009B583B617B69BF
:103BA000032213409B000F229A401300DA433B6923
:103BB00013403B617A68A023DB059A4219D07B68E9
:103BC000474A934213D07B68464A93420DD07B68A4
:103BD000454A934207D07B68444A934201D105236A
:103BE00008E0062306E0032304E0022302E00123A9
:103BF00000E000237A6903210A40920093403A6969
:103C000013433B6135497B699B0802339B003A694A
:103C10005A50374B9B683B61FB68DA433B69134062
:103C20003B613B685A6880235B03134003D03A69C9
:103C3000FB6813433B612E4B3A699A602C4BDB685F
:103C40003B61FB68DA433B6913403B613B685A6860
:103C500080239B03134003D03A69FB6813433B6105
:103C6000234B3A69DA60224B5B683B61FB68DA43BD
:103C70003B6913403B613B685A6880239B021340B9
:103C800003D03A69FB6813433B61194B3A695A60A8
:103C9000174B1B683B61FB68DA433B6913403B6190
:103CA0003B685A6880235B02134003D03A69FB6883
:103CB00013433B610E4B3A691A607B6901337B61A8
:103CC0003B681A687B69DA40131E00D0A8E6C0463C
:103CD000C046BD4606B080BD001002400000014055
:103CE0000004005000080050000C0050001C005060
:103CF0000004014080B582B000AF78600800110078
:103D0000BB1C021C1A807B1C0A1C1A707B1C1B78B3
:103D1000002B04D0BB1C1A887B689A6103E0BB1C93
:103D20001A887B689A62C046BD4602B080BD00001A
:103D3000B0B58AB000AF78607B68002B02D1012358
:103D400000F0AFFBCF4BDB680C2213403B62CD4B46
:103D5000DA6880235B021340FB617B681B680122E9
:103D6000134000D17EE03B6A082B07D03B6A0C2B46
:103D700012D1FA6980235B029A420DD1C14B1A68B5
:103D800080239B02134000D16BE07B685B68002BB3
:103D900067D1012300F085FB7B685A6880235B02B2
:103DA0009A4207D1B74B1A68B64B802149020A43A1
:103DB0001A6027E07B685A68A023DB029A420ED182
:103DC000B04B1A68AF4B8021C9020A431A60AD4B51
:103DD0001A68AC4B802149020A431A6012E0A94BD1
:103DE0001A68A84BA8490A401A60A64B1A68802393
:103DF0005B021340FB60FB68A24B1A68A14BA3490E
:103E00000A401A607B685B68002B15D0FEF7C6FF7E
:103E10000300BB6109E0FEF7C1FF0200BB69D31AD2
:103E2000642B02D9032300F03CFB964B1A688023D5
:103E30009B021340EFD015E0FEF7B0FF0300BB611B
:103E400008E0FEF7ABFF0200BB69D31A642B01D96F
:103E5000032326E38B4B1A6880239B021340F0D187
:103E600000E0C0467B681B680222134000D18BE053
:103E70007B68DB687B613B6A042B05D03B6A0C2BBB
:103E80003ED1FB69002B3BD17E4B1B6804221340C3
:103E900004D07B69002B01D1012302E3794B5B68DD
:103EA0007B4A134019007B681B691A02754B0A4351
:103EB0005A60744B1B68092293431900714B7A694D
:103EC0000A431A6000F040FC01006E4BDB681B09DE
:103ED0000F2213406F4AD35C0A00DA406E4B1A601F
:103EE0006E4B1B6813257C191800FEF711FF0300A9
:103EF00023707B191B78002B46D07B191B78D0E2EE
:103F00007B69002B27D05F4B1B6809229343190064
:103F10005C4B7A690A431A60FEF740FF0300BB61FD
:103F200008E0FEF73BFF0200BB69D31A022B01D960
:103F30000323B6E2534B1B6804221340F1D0514BCC
:103F40005B68534A134019007B681B691A024D4B8A
:103F50000A435A6018E04B4B1A684A4B01218A43C6
:103F60001A60FEF71BFF0300BB6108E0FEF716FFB7
:103F70000200BB69D31A022B01D9032391E2414B02
:103F80001B6804221340F1D17B681B681022134088
:103F900000D1A1E03B6A002B40D13A4B1A68802344
:103FA0009B00134005D07B68DB69002B01D1012306
:103FB00077E2344B5B683A4A134019007B685A6ACF
:103FC000304B0A435A602F4B5B681B02190A7B680F
:103FD0001B6A1A062B4B0A435A607B685B6A5B0BB1
:103FE0000133802212029A40264BDB681B090F2105
:103FF0000B402849CB5CDA40274B1A60274B1B68E3
:1040000013257C191800FEF783FE030023707B192B
:104010001B78002B60D07B191B7842E27B68DB6940
:10402000002B3FD0174B1A68164B802149000A43DA
:104030001A60FEF7B3FE0300BB6108E0FEF7AEFEB8
:104040000200BB69D31A022B01D9032329E20D4BCD
:104050001A6880239B001340F0D00A4B5B68104A1B
:10406000134019007B685A6A064B0A435A60054B95
:104070005B681B02190A7B681B6A1A06014B0A431C
:104080005A6029E000100240FFFFFEFFFFFFFBFF28
:10409000FFE0FFFF00950008000000200400002062
:1040A000FF1FFFFFBD4B1A68BC4BBD490A401A6099
:1040B000FEF774FE0300BB6108E0FEF76FFE02002E
:1040C000BB69D31A022B01D90323EAE1B34B1A6867
:1040D00080239B001340F0D17B681B6808221340AB
:1040E00036D07B685B69002B19D0AC4B1A6DAB4B9B
:1040F00001210A431A65FEF751FE0300BB6108E087
:10410000FEF74CFE0200BB69D31A022B01D9032330
:10411000C7E1A24B1B6D02221340F1D018E09F4B68
:104120001A6D9E4B01218A431A65FEF737FE030084
:10413000BB6108E0FEF732FE0200BB69D31A022B16
:1041400001D90323ADE1954B1B6D02221340F1D140
:104150007B681B680422134000D1AEE027203B1887
:1041600000221A708D4B9A6B80235B05134009D196
:104170008A4B9A6B894B802149050A439A633B1805
:1041800001221A70874B1A6880235B0013401AD1F2
:10419000844B1A68834B802149000A431A60FEF75A
:1041A000FDFD0300BB6108E0FEF7F8FD0200BB69FE
:1041B000D31A642B01D9032373E17A4B1A68802345
:1041C0005B001340F0D07B689A6880235B009A42C2
:1041D00007D1724B1A6D714B802149000A431A6551
:1041E00031E07B689B68002B0CD16C4B1A6D6B4BDC
:1041F0006B490A401A65694B1A6D684B6A490A4057
:104200001A6520E07B689A68A023DB009A420ED1F1
:10421000624B1A6D614B8021C9000A431A655F4BDE
:104220001A6D5E4B802149000A431A650BE05B4B17
:104230001A6D5A4B5A490A401A65584B1A6D574B1A
:1042400059490A401A657B689B68002B15D0FEF718
:10425000A5FD0300BB6109E0FEF7A0FD0200BB69FC
:10426000D31A524A934201D903231AE14B4B1A6DD8
:1042700080239B001340EFD014E0FEF78FFD030076
:10428000BB6109E0FEF78AFD0200BB69D31A474A09
:10429000934201D9032304E1404B1A6D80239B0014
:1042A0001340EFD12723FB181B78012B05D13B4B83
:1042B0009A6B3A4B3E490A409A637B681B682022FE
:1042C000134049D07B689B69002B26D0334B9A68FA
:1042D000324B01210A439A60304B5A6B2F4B01211C
:1042E0000A435A63334B1A6A324B802189010A43CD
:1042F0001A62FEF753FD0300BB6108E0FEF74EFDB6
:104300000200BB69D31A022B01D90323C9E0234B56
:104310009B6802221340F1D01EE0204B9A681F4B8D
:1043200001218A439A60234B1A6A224B22490A4090
:104330001A62FEF733FD0300BB6108E0FEF72EFDB5
:104340000200BB69D31A022B01D90323A9E0134B46
:104350009B6802221340F1D17B689B6A002B00D13D
:104360009EE03B6A0C2B00D177E07B689B6A022BB6
:1043700058D10A4B1A68094B10490A401A60FEF7D7
:104380000DFD0300BB611BE0FEF708FD0200BB69E9
:10439000D31A022B14D9032383E0C0460010024035
:1043A000FFFEFFFF00700040FFFBFFFF88130000CF
:1043B000FFFFFFEF00000140FFDFFFFFFFFFFFFEF9
:1043C0003A4B1A6880239B041340DDD1374BDB68DE
:1043D000374A134019007B68DA6A7B681B6B1A4303
:1043E0007B685B6B1A43314B0A43DA602F4B1A68C8
:1043F0002E4B802149040A431A60FEF7CFFC0300CC
:10440000BB6108E0FEF7CAFC0200BB69D31A022BAD
:1044100001D9032345E0254B1A6880239B041340F0
:10442000F0D03DE0214B1A68204B22490A401A6027
:10443000FEF7B4FC0300BB6108E0FEF7AFFC02002E
:10444000BB69D31A022B01D903232AE0174B1A6840
:1044500080239B041340F0D122E07B689B6A012BF0
:1044600001D101231DE0114BDB68FB61FA69802358
:104470005B021A407B68DB6A9A420FD1FA69F0232B
:104480009B031A407B681B6B9A4207D1FA69C023D1
:104490001B041A407B685B6B9A4201D0012300E049
:1044A00000231800BD460AB0B0BDC046001002404F
:1044B000FFFF02FFFFFFFFFEB0B584B000AF7860E2
:1044C00039607B68002B01D1012328E1964B1B68E2
:1044D000012213403A689A421ED9934B1B6801226D
:1044E00093431900904B3A680A431A60FEF756FC52
:1044F0000300FB6009E0FEF751FC0200FB68D31AE1
:104500008A4A934201D9032309E1874B1B680122A0
:1045100013403A689A42EED17B681B68022213402E
:1045200009D0834BDB68F022934319007B689A68BB
:104530007F4B0A43DA607B681B680122134000D17D
:1045400089E07B685B68022B07D1794B1A6880236E
:104550009B02134020D10123E1E07B685B68032BC1
:1045600007D1734B1A6880239B04134014D1012395
:10457000D5E07B685B68012B06D16D4B1B6804227C
:10458000134009D10123CAE0694B1A6880239B00BC
:10459000134001D10123C2E0654BDB680322934342
:1045A00019007B685A68624B0A43DA60FEF7F6FB33
:1045B0000300FB607B685B68022B11D109E0FEF70A
:1045C000EDFB0200FB68D31A584A934201D903233A
:1045D000A5E0574BDB680C221340082BEFD13AE0E3
:1045E0007B685B68032B11D109E0FEF7D7FB020063
:1045F000FB68D31A4D4A934201D903238FE04C4BF9
:10460000DB680C2213400C2BEFD124E07B685B6845
:10461000012B1BD109E0FEF7C1FB0200FB68D31A96
:10462000424A934201D9032379E0414BDB680C22D3
:104630001340042BEFD10EE0FEF7B0FB0200FB6845
:10464000D31A3A4A934201D9032368E0384BDB6816
:104650000C221340F0D1344B1B68012213403A68FE
:104660009A421ED2304B1B680122934319002E4BF5
:104670003A680A431A60FEF791FB0300FB6009E009
:10468000FEF78CFB0200FB68D31A284A934201D93B
:10469000032344E0244B1B68012213403A689A42EA
:1046A000EED17B681B680422134009D0204BDB68E5
:1046B000204A134019007B68DA681D4B0A43DA6010
:1046C0007B681B68082213400AD0194BDB681A4A22
:1046D000134019007B681B69DA00154B0A43DA6046
:1046E00000F032F80100124BDB681B090F22134067
:1046F000124AD35C0A00DA40114B1A60114B1B6856
:104700000B257C191800FEF703FB030023707B19AF
:104710001B78002B02D07B191B7800E000231800C7
:10472000BD4604B0B0BDC046002002408813000062
:1047300000100240FFF8FFFFFFC7FFFF00950008D1
:10474000000000200400002080B586B000AF3C4B84
:10475000DB68FB60FB680C2213400C2B13D05CD889
:10476000042B02D0082B0BD057E0354B1B681022CE
:10477000134002D0334B3B615DE0334B3B615AE069
:10478000324B3B6157E0FB689B0C0F221340304AD1
:10479000D35CBB60FB689B0D0322134001337B603D
:1047A000274BDA6880235B0213400FD0B9680A00F8
:1047B0005201521A93019B1ADB005B185B02796865
:1047C0001800FBF7BDFC03007B6123E01C4B1B685A
:1047D000102213400FD0B9680A005201521A9301F7
:1047E0009B1ADB005B181B0279681800FBF7A8FC1A
:1047F00003007B610EE0B9680A005201521A93016E
:104800009B1ADB005B189B0279681800FBF798FC89
:1048100003007B617B693B610DE0094B5B685B0BCF
:10482000072213403B603B680133802212029A400A
:1048300013003B61C0463B691800BD4606B080BD11
:104840000010024000093D000024F40000127A002C
:104850001095000880B582B000AF78607B68002BAF
:1048600001D1012332E07B6839229B5CDBB2002B53
:1048700007D17B683822002199547B681800FEF725
:10488000E7F87B683922022199547B681A687B68B3
:1048900004331900100000F011F97B683E22012159
:1048A00099547B683A22012199547B683B2201216B
:1048B00099547B683C22012199547B683D22012157
:1048C00099547B6839220121995400231800BD4670
:1048D00002B080BD80B584B000AF78607B681B6893
:1048E000DB68FB607B681B681B69BB60BB680222DE
:1048F000134021D0FB68022213401DD07B681B6847
:10490000032252421A617B6801221A767B681B6877
:104910009B690322134004D07B68180000F0B6F8AE
:1049200007E07B68180000F0A9F87B68180000F029
:10493000B5F87B6800221A76BB680422134022D0A7
:10494000FB68042213401ED07B681B68052252427C
:104950001A617B6802221A767B681B689A69C023F9
:104960009B00134004D07B68180000F08FF807E02C
:104970007B68180000F082F87B68180000F08EF861
:104980007B6800221A76BB680822134021D0FB689E
:10499000082213401DD07B681B68092252421A610D
:1049A0007B6804221A767B681B68DB69032213404C
:1049B00004D07B68180000F069F807E07B681800F5
:1049C00000F05CF87B68180000F068F87B68002253
:1049D0001A76BB681022134022D0FB6810221340C5
:1049E0001ED07B681B68112252421A617B68082224
:1049F0001A767B681B68DA69C0239B00134004D0D9
:104A00007B68180000F042F807E07B68180000F0AF
:104A100035F87B68180000F041F87B6800221A76B0
:104A2000BB68012213400CD0FB680122134008D060
:104A30007B681B68022252421A617B68180000F0F2
:104A400015F8BB68402213400CD0FB68402213408D
:104A500008D07B681B68412252421A617B681800AB
:104A600000F024F8C046BD4604B080BD80B582B0D9
:104A700000AF7860C046BD4602B080BD80B582B050
:104A800000AF7860C046BD4602B080BD80B582B040
:104A900000AF7860C046BD4602B080BD80B582B030
:104AA00000AF7860C046BD4602B080BD80B582B020
:104AB00000AF7860C046BD4602B080BD80B584B00E
:104AC00000AF786039607B681B68FB607A68802380
:104AD000DB059A4207D07B68224A934203D07B6869
:104AE000214A934208D1FB6870229343FB603B68E4
:104AF0005B68FA681343FB607A688023DB059A429F
:104B000007D07B68174A934203D07B68164A9342CA
:104B100008D1FB68154A1340FB603B68DB68FA6804
:104B20001343FB60FB68802293431A003B681B69B8
:104B30001343FB603B689A687B68DA623B681A68DB
:104B40007B689A627B681B6804221A437B681A6040
:104B50007B6801225A617B68FA681A60C046BD46CC
:104B600004B080BD0008014000140140FFFCFFFFBD
:104B700080B584B000AF786039607B6838229B5C78
:104B8000012B01D1022342E07B6838220121995494
:104B90007B683922022199547B681B685B68FB6043
:104BA0007B681B689B68BB60FB6870229343FB605B
:104BB0003B681B68FA681343FB607B681B68FA68F4
:104BC0005A607B681A688023DB059A4209D07B68AB
:104BD0001B68114A934204D07B681B680F4A9342BA
:104BE0000CD1BB6880229343BB603B685B68BA68AA
:104BF0001343BB607B681B68BA689A607B68392284
:104C0000012199547B68382200219954002318000F
:104C1000BD4604B080BDC0460008014000140140FC
:104C2000F0B51F00002316008BB09F4204DA8021EC
:104C300009067B181F002D23129A149D1370202340
:104C400003229D43462D07D02B00453B59424B4143
:104C50001099013ACB18109309AB049308AB039356
:104C6000139B00920293109B320001933B0001F0D2
:104C700091F80400472D1BD1119BDB0711D5109B28
:104C8000C31807930022002330003900FBF7DEFB36
:104C9000002801D0079B09933022099B07998B427A
:104CA00020D32000099B159A1B1B13600BB0F0BD8D
:104CB000109BC3180793462DE4D10378302B0CD1F9
:104CC0000022002330003900FBF7C0FB002804D18C
:104CD0000123109A9B1A139A1360139B079A1B685F
:104CE000D318CEE7591C09911A70D6E7F0B52B23DB
:104CF00085B005000C1E027001DA4C4202336B7065
:104D0000092C2CDD02ABDE1D20000A21FBF788FBFD
:104D100037003031013E200031700A210194FBF749
:104D200099FA019B0400632BEEDCBA1EA81C01005B
:104D300013003034147002AC07349C420AD80023AC
:104D4000944203D3093302AA9B18DB1BC018401BF3
:104D500005B0F0BD1C7801330C700131EBE7302356
:104D6000E418AB70281DEC70F1E70000F0B597B0C7
:104D70000D000A921C9C0B93099000F0F7FE03684B
:104D800018000D93FBF7C0F900230F9014932B7EAE
:104D900007220C932B680E930E992368C90545D5FD
:104DA0009B1893431A000832226001221E685F6834
:104DB0007B005B0811931096AE64EF641098119914
:104DC000A74B5242FDF7CEFA002831D11098119925
:104DD0000122A34B5242FBF749FB002828D10022B5
:104DE000002330003900FBF737FB002803D02B00ED
:104DF0002D2243331A700C9B9A4F472B00D89A4FA1
:104E0000032300240E9A2B6101339A432A600B9BE3
:104E10002900009309980A9B15AA00F0E5F90130D2
:104E200000D09EE00120404217B0F0BD0733B8E744
:104E300032003B0030003900FDF794FA00280BD017
:104E4000002F03DA2B002D2243331A700C9B874F5F
:104E5000472BD5D8864FD3E720220C9C6B68944310
:104E60005A1C46D107336B6080230E9ADB00134334
:104E700000222B60069214AA05920C9A0AA90492A9
:104E800013AA039223225218029201936B683200F4
:104E9000009309983B00FFF7C3FE139A0700472CC5
:104EA0002DD1D31C02DB6B689A4247DD0C9B023B81
:104EB000DBB20C93280013990C9A013950301391EE
:104EC000FFF714FF149A040013182B61012A02DC67
:104ED0002A68D20701D501332B6123230AAA9B1824
:104EE0001B78002B00D192E72B002D2243331A7040
:104EF0008DE7472CB8D1002BB6D10133B3E70C9B1B
:104F0000652BD7D90C9B662B1AD16B68002A09DD5B
:104F10002A61002B02D12968C9070BD501339B18E0
:104F20002B6107E0002B03D101222968114200D038
:104F30009A1C2A61139B0024AB65CEE767230C9370
:104F40001399149B994206DB2B682961DB07F1D585
:104F500001312961EEE701220029E0DC9218521AA2
:104F6000DDE72A68530508D42B693A000A990998A5
:104F70000B9CA047013029D154E70C9B652B00D82E
:104F8000DBE0A86CE96C00220023FBF75FFA002845
:104F900033D00123374A0A9909980B9CA047013066
:104FA00000D13FE7149E139BB34202DB2B68DB0763
:104FB0000CD50B9C0F9B0D9A0A990998A0470024C9
:104FC000013000D12EE7731EA3420ADC2B689B0739
:104FD00000D506E1159BE868984200DB24E718003D
:104FE00022E72A0001230A9909980B9F1A32B84731
:104FF000013000D116E70134E5E7139B002B3BDCC1
:1050000001231C4A0A9909980B9CA047013000D142
:1050100008E7149E139B334302D12B68DB07D5D5D9
:105020000F9B0D9A0A9909980B9CA0470023013009
:1050300000D1F7E60C93139B0C9A5B42934201DC80
:10504000330092E72A0001230A9909980B9C1A322F
:10505000A047013000D1E5E60C9B0133EAE7C046EA
:10506000FFFFEF7F1D9500081995000825950008A2
:105070002195000829950008149BAE6D0C939E4263
:1050800000DD1E00002E31DCF3430024DB1733402B
:105090000E93AE6D0E9BF31AA34230DC139B0C9A59
:1050A0009A4238DC2B68DB0735D4139C0C9B0C9A96
:1050B0009B1B141B9C4200DD1C00002C34DCE343D2
:1050C0000026DB171C40139B0C9AD31A1B1BB34200
:1050D00000DC7BE72A0001230A9909980B9F1A320A
:1050E000B847013000D19DE60136ECE733003A00C5
:1050F0000A9909980B9CA0470130C5D192E62A0075
:1051000001230A9909980B9E1A32B047013000D149
:1051100088E60134BDE70F9B0D9A0A9909980B9C0C
:10512000A0470130C1D17DE6BA1923000A99099838
:105130000B9EB0470130C2D174E6149B0C93012B37
:1051400002DC01231A4239D001233A000A99099856
:105150000B9EB047013000D164E60F9B0D9A0A996F
:1051600009980B9EB047013000D15BE6A86CE96C52
:105170000C9B0022013B0C930023FBF767F90028EE
:105180001AD10C9B7A1C0A9909980B9EB0470130E2
:105190000ED147E62A0001230A9909980B9F1A327B
:1051A000B847013000D13DE601360C9B9E42F1DB51
:1051B0002A0023005032D9E60026F6E73A00E2E75B
:1051C0002A0001230A9909980B9E1932B047013031
:1051D00000D127E60134EB68159A9B1AA342EFDC55
:1051E000F8E60024F7E7C046F7B5160001938A6891
:1051F0000B690C000090934200DA13002200336028
:1052000043321278002A01D00133336023689B06B1
:1052100002D53368023333602268062315001D402F
:105220001A4227D0230043331B785A1E9341226829
:10523000920630D4220001990098089D4332A84775
:10524000013025D00622236800251340042B05D108
:105250003368E568ED1AEB43DB171D40A36822694C
:10526000934201DD9B1AED180026B54220D10020A3
:1052700010E00135E36832689B1AAB42D2DD2200B0
:10528000012301990098089F1932B8470130F0D1E5
:1052900001204042FEBD3020E1184331087021005A
:1052A0005A1C45310978A218433202331170C1E704
:1052B0002200012301990098089F1A32B847013053
:1052C000E6D00136D1E70000F0B58BB006920A00B7
:1052D00043320793059003920A7E0C00109B782AB4
:1052E00009D8622A0BD8002A00D1BAE07A49049181
:1052F000582A00D18EE0250042352A7022E01000A5
:1053000063381528F7D8FAF711FF16001F00F6FFCB
:10531000F6FFF6FFF6FF1F00F6FFF6FFF6FFF6FFBB
:105320009F0036007E00F6FFF6FFB000F6FF360065
:10533000F6FFF6FF820025001A684235111D19603C
:1053400013682B7001239EE018680968021D0D0682
:105350000BD506681A60002E03DA2D23039A7642D5
:1053600013705D4B0A27049318E006681A6049061B
:10537000F1D536B2EFE70868196840C9050602D4CE
:10538000400600D5B6B21960534B0A2704936F2A22
:1053900000D1023F2300002243331A706368A360E8
:1053A000002B06DB04212268039D8A4322603343DD
:1053B0000CD0039D30003900FAF748FF049B013DF3
:1053C0005B5C2B70330006009F42F3D9082F09D194
:1053D0002368DB0706D5626823699A4202DC302322
:1053E000013D2B70039B5B1B2361079B21000093F6
:1053F0000598069B09AAFFF7F7FE013048D1012066
:1054000040420BB0F0BD202209680A432260782296
:1054100032490491210045310A701968226840C957
:10542000100602D4500600D5B6B21960D30702D5D3
:10543000202313432360002E01D01027AAE7202247
:10544000236893432360F8E71A680D68101D4969C3
:10545000186013682E0601D5196002E06D06FBD5B1
:1054600019800023039D2361BFE71A68111D19608D
:10547000156800212800626800F0F7FB002801D0C1
:10548000401B6060636823610023039A1370ACE7DC
:105490002A00236906990598079DA8470130AED0D8
:1054A00023689B0715D4099BE0689842A9DA180085
:1054B000A7E72200012306990598079E1932B047F5
:1054C00001309CD00135E368099A9B1AAB42F0DCAD
:1054D000E9E70025F7E7C0462B9500083C95000852
:1054E000F0B58BB016000390AE22002007938B68B6
:1054F0000C00591E52000690914205D95E3BFF3BBD
:1055000006935E23FF33A360F0232268DB0013437E
:105510002360230000251C331F0004930295099586
:10552000089501950595A268002A0AD033681B7872
:105530004E2B44D81800402B2CD82B38C1B20E2942
:105540002AD9019B002B03D02368A64A134023606D
:10555000029B013B012B00D9FEE0BE256D00049BA0
:105560009F4200D9EEE001200BB0F0BD1800613879
:105570000D28E6D8FAF7DAFD8900E5FFE5FFE5FF3B
:10558000BB00A700E5FFE5FF8F00E5FFE5FFE5FFB6
:10559000E5FF6B004138EBE70E28D2D8FAF7C6FDDD
:1055A0004F00D1FF4F009D00D1FF2100410041007D
:1055B00041004100410041004100410041006E2B8B
:1055C0000AD8602BD2D8542B00D181E0592BB8D106
:1055D000072DB6D108252FE0742B79D0792BF7D081
:1055E000AFE72168C8051CD580239943019B216042
:1055F00001330193069B002B03D0013B013206933C
:10560000A260A368013BA36023690133236173682F
:10561000013B7360002B00DC8AE0336801333360A8
:1056200081E7029A5119002900D08AE70D0022680B
:105630006D480291024022603B700137E1E7802112
:1056400022680A4200D17CE78A432260F4E7029A8A
:10565000002A0FD1019A002A0FD12268E021100000
:10566000C9000840884208D160490A4022600122EE
:105670000292E1E7029A022A58D0012D02D0042DAD
:1056800000D05EE70135EDB2D6E7029A012A00D0DC
:1056900057E70222ECE7002D10D1019A002A00D032
:1056A00052E72268E0211000C9000840884200D07B
:1056B0001BE14E4901350A402260BDE7FD21EA1E8B
:1056C0000A42DFD03DE7022D00D03AE70325B3E7D9
:1056D000062D00D035E70725AEE72268910500D4F6
:1056E0002FE743490A402260019A0592A4E7A021CE
:1056F00080202268C9001140C000814206D00242C9
:1057000000D11EE70199002900D1EEE0910504D4F3
:10571000019905980997091A089134490A40C0214E
:1057200049000A4322600022019285E703229FE795
:10573000C0235B003100E35803989847002800D14C
:10574000F1E6FEE6013F6359320039780398984745
:105750002369013B236102E76B1E062B0ED80297DB
:10576000022D20D9EB1BDBB20693029B069A9B18F5
:10577000DBB2032B27D1033DEDB27F1B2368DA0593
:1057800053D55B0536D5BE256D00049B9F4200D8DE
:10579000E9E6013F63593200397803989847236955
:1057A000013B2361F1E7BE256D00049B9F4200D8B9
:1057B000D9E6013F63593200397803989847236945
:1057C000013B2361F1E7029B3200013B1978029310
:1057D000BE235B00E358039898472369013B23618C
:1057E000C3E7C046FFFEFFFF7FFEFFFF7FF8FFFF1E
:1057F0007FFDFFFF23697D1E2978013B2361652919
:105800000CD045290AD0BE235B00E3583200039830
:1058100098472369BD1E013B29782361BE235B00A5
:105820003200E358039898472F00216810230A009C
:105830001A40194201D0002096E6C0213A70236830
:10584000C9000B408021C9008B4226D1059B019ADB
:1058500093420CD09A1A23007033FF339F4202D335
:1058600027006F37FF373800214900F009F900227F
:105870000499039802F05CFC079B226806000F0065
:105880001B68910716D507991A1D0A601B681E60D0
:105890005F60E3680133E360CDE7089B002BE6D04F
:1058A000099B0398591C0A2302F0D4FC089B099F0A
:1058B000C21AD0E7191D520702D5079A1160E5E711
:1058C000079A300011601D6832003B003900FCF778
:1058D00049FD002804D0074800F0D2F92860D8E735
:1058E00030003900FCF7EEFDF8E7002301932FE6C6
:1058F0004D9500088E960008002310B50400036043
:105900004360836081814366C28103614361836137
:10591000190008225C3000F021F90B4B246263620D
:105920000A4BA3620A4BE3620A4B23630A4B9C4275
:1059300005D00A4B9C4202D0094B9C4203D1200067
:10594000583000F08FF910BDC55A0008ED5A000814
:10595000255B0008515B000898020020000300202E
:105960006803002010B5034A0349044800F06CF8AE
:1059700010BDC0460C000020258600081C00002039
:1059800041680B4B10B50400994201D002F04AFE69
:10599000A168084B994202D0200002F043FEE16862
:1059A000054B994202D0200002F03CFE10BDC046DB
:1059B00098020020000300206803002010B5094B66
:1059C000094A04211A6009480022FFF795FF0122C5
:1059D00009210748FFF790FF022212210548FFF72F
:1059E0008BFF10BDD00300206559000898020020ED
:1059F000000300206803002010B5024800F033F9CE
:105A000010BDC046D903002010B5024800F02CF9A3
:105A100010BDC046D903002010B50400FFF7ECFF0D
:105A2000236A002B02D0FFF7EFFF10BD044B236267
:105A3000044B1B68002BF6D1FFF7C0FFF3E7C0460D
:105A400081590008D0030020F7B51400002600900B
:105A50000191A5686768013F04D52468002CF8D13E
:105A60003000FEBDAB89012B08D90E22AB5E01339D
:105A700004D029000098019B984706436835EAE75F
:105A80000EB410B500240C499DB01FAB02900690D7
:105A90000791049109480A4904CB0591006802A9BD
:105AA00001931B9402F03AFC029B1C701DB010BCC9
:105AB00008BC03B01847C046FFFFFF7F1800002056
:105AC0000802FFFF70B50C000E25495F00F078F862
:105AD000002803DB636D1B18636570BDA389024A50
